:100000000C9462000C94DF030C94B8030C948A00E7
:100010000C948A000C948A000C948A000C948A0038
:100020000C948A000C948A000C948A000C948A0028
:100030000C948A000C948A000C948A000C948A0018
:100040000C946E030C948A000C942C040C940604FB
:100050000C948A000C948A000C948A000C948A00F8
:100060000C948A000C948A000000000024002700F1
:100070002A0000000000250028002B0000000000DE
:1000800023002600290004040404040404040202DA
:100090000202020203030303030301020408102007
:1000A0004080010204081020010204081020000012
:1000B0000008000201000003040700000000000027
:1000C00000005E0411241FBECFEFD8E0DEBFCDBF1D
:1000D00011E0A0E0B1E0EAE5F5E102C005900D9283
:1000E000AA38B107D9F723E0AAE8B1E001C01D9210
:1000F000A235B207E1F710E0C2E6D0E004C02197D4
:10010000FE010E94C807C136D107C9F70E949904B1
:100110000C94AB0A0C940000833081F028F48130F9
:1001200099F08230A1F008958730A9F08830B9F0B5
:100130008430D1F4809180008F7D03C08091800055
:100140008F7780938000089584B58F7702C084B53F
:100150008F7D84BD08958091B0008F7703C080911A
:10016000B0008F7D8093B0000895CF93DF93E2EBD2
:10017000F0E08491EEE9F0E0D491EAE8F0E0C49197
:10018000CC2391F081110E948C00EC2FF0E0EE0F57
:10019000FF1FE458FF4FA591B491EC91ED2381E04E
:1001A00090E021F480E002C080E090E0DF91CF9108
:1001B00008951F93CF93DF93282F30E0F901E25584
:1001C000FF4F8491F901E656FF4FD491F901EA57A8
:1001D000FF4FC491CC23C9F0162F81110E948C00CF
:1001E000EC2FF0E0EE0FFF1FEE58FF4FA591B491FA
:1001F0008FB7F894111105C09C91ED2FE095E9237C
:1002000002C0EC91ED2BEC938FBFDF91CF911F914A
:100210000895CF93DF9390E0FC01E656FF4F2491C1
:10022000FC01EA57FF4F8491882361F190E0880F29
:10023000991FFC01E859FF4FC591D491FC01EE587C
:10024000FF4FA591B491611109C09FB7F8948881BF
:10025000209582238883EC912E230BC0623061F4B9
:100260009FB7F8943881822F809583238883EC91FF
:100270002E2B2C939FBF06C08FB7F894E8812E2BAE
:1002800028838FBFDF91CF9108953FB7F894809175
:100290008A0290918B02A0918C02B0918D0226B5BA
:1002A000A89B05C02F3F19F00196A11DB11D3FBFAE
:1002B000BA2FA92F982F8827820F911DA11DB11D3C
:1002C000BC01CD0142E0660F771F881F991F4A9538
:1002D000D1F708950895CF92DF92EF92FF920F9396
:1002E0001F93CF93DF936C017A018B01C0E0D0E0C4
:1002F000CE15DF0589F0D8016D918D01D601ED9104
:10030000FC910190F081E02DC6010995892B11F433
:100310007E0102C02196ECCFC701DF91CF911F91E2
:100320000F91FF90EF90DF90CF900895089580E0B7
:1003300090E00895FC01538D448D252F30E0842FEB
:1003400090E0821B930B541710F0CF9608950197FD
:100350000895FC01918D828D981761F0828DDF01E7
:10036000A80FB11D5D968C91928D9F5F9F73928FA8
:1003700090E008958FEF9FEF0895FC01918D828D9D
:10038000981731F0828DE80FF11D858D90E008956A
:100390008FEF9FEF0895FC01918D228D892F90E0C2
:1003A000805C9F4F821B91098F73992708958EE877
:1003B00092E00E94CB0121E0892B09F420E0822FFA
:1003C0000895FC01848DDF01A80FB11DA35ABF4F12
:1003D0002C91848D90E001968F739927848FA68944
:1003E000B7892C93A089B1898C9180648C93938D6B
:1003F000848D981306C00288F389E02D80818F7D5B
:1004000080830895EF92FF920F931F93CF93DF9312
:10041000EC0181E0888F9B8D8C8D981305C0E88955
:10042000F989808185FD24C0F62E0B8D10E00F5FC9
:100430001F4F0F731127E02E8C8DE8120CC00FB6E2
:1004400007FCFACFE889F989808185FFF5CFCE01D5
:100450000E94E101F1CF8B8DFE01E80FF11DE35AFF
:10046000FF4FF0820B8FEA89FB898081806207C091
:10047000EE89FF896083E889F989808180648083BF
:1004800081E090E0DF91CF911F910F91FF90EF906D
:100490000895CF93DF93EC01888D8823C9F0EA8912
:1004A000FB89808185FD05C0A889B9898C9186FD6D
:1004B0000FC00FB607FCF5CF808185FFF2CFA8896A
:1004C000B9898C9185FFEDCFCE010E94E101E7CF84
:1004D000DF91CF91089580E090E0892B29F00E9470
:1004E000D70181110C94000008950E94B500892B5A
:1004F00061F0809184028F5F8093840280918402F6
:10050000843650F0109284020895809184028150C4
:10051000809384028091840208952F923F924F929B
:100520005F926F927F928F929F92AF92BF92CF9283
:10053000DF92EF92FF920F931F93CF93DF9300D040
:10054000CDB7DEB76B017C018DB79EB79A838983E7
:1005500060904203E62DF0E04F0191E0891A910886
:100560008DB79EB78E1B9F0B0FB6F8949EBF0FBE24
:100570008DBF0DB71EB70F5F1F4FEE0FFF1FEE0FA2
:10058000FF1FDF01A25DBE4F4D915D916D917C918A
:10059000EE5CFE4F80819181A281B381C816D9069D
:1005A000EA06FB0624F0902FF80125E20EC081E058
:1005B00090E0A0E0B0E0841B950BA60BB70BC8162B
:1005C000D906EA06FB067CF30DC08E2F891B861523
:1005D00028F42193FACF8A3008F04FC0F80180E068
:1005E00090E05CC0F7FE0EC085E2F8018083F094D5
:1005F000E094D094C094C11CD11CE11CF11C772460
:10060000739401C0712C761428F5A72CB12CF40139
:10061000EA19FB09EE0FFF1FEE0FFF1FEE5CFE4F06
:100620002080318042805380C701B601A201910130
:100630000E946D07F801EA0DFB1D2083A22FB0E098
:10064000A20191010E948C07C61AD70AE80AF90A8A
:100650007394D9CF809131038111C0CF20E034E26F
:10066000822F90E0881599050CF0B8CFF801E80FBB
:10067000F91F80818111AFCF30832F5FF1CFA1911E
:10068000B0E0A45FBE4F2C91DC01A55DBC4F881586
:10069000990509F4206859962C930196861578F3EC
:1006A00089819A810FB6F8949EBF0FBE8DBF0F90BF
:1006B0000F90DF91CF911F910F91FF90EF90DF90FE
:1006C000CF90BF90AF909F908F907F906F905F90F2
:1006D0004F903F902F9008950E94CE071F920F9247
:1006E0000FB60F9211242F933F938F939F93AF9345
:1006F000BF938091860290918702A0918802B09169
:1007000089023091850223E0230F2D3720F40196D2
:10071000A11DB11D05C026E8230F0296A11DB11D24
:10072000209385028093860290938702A09388028B
:10073000B093890280918A0290918B02A0918C02E1
:10074000B0918D020196A11DB11D80938A029093F4
:100750008B02A0938C02B0938D02BF91AF919F91B9
:100760008F913F912F910F900FBE0F901F90189572
:100770001F920F920FB60F9211242F933F934F9316
:100780005F936F937F938F939F93AF93BF93EF93F9
:10079000FF93E0910201F09103010995FF91EF9120
:1007A000BF91AF919F918F917F916F915F914F9189
:1007B0003F912F910F900FBE0F901F9018951F9291
:1007C0000F920FB60F9211242F933F934F935F9385
:1007D0006F937F938F939F93AF93BF93EF93FF9309
:1007E000E0910001F09101010995FF91EF91BF9116
:1007F000AF919F918F917F916F915F914F913F91B9
:100800002F910F900FBE0F901F9018951F920F926F
:100810000FB60F9211242F933F934F935F936F93D3
:100820007F938F939F93AF93BF93EF93FF938EE844
:1008300092E00E94E101FF91EF91BF91AF919F91F2
:100840008F917F916F915F914F913F912F910F9079
:100850000FBE0F901F9018951F920F920FB60F9218
:1008600011242F938F939F93EF93FF93E0919E0218
:10087000F0919F028081E091A402F091A50282FD97
:1008800012C090818091A7028F5F8F732091A80280
:10089000821751F0E091A702F0E0E257FD4F958FEB
:1008A0008093A70201C08081FF91EF919F918F916A
:1008B0002F910F900FBE0F901F901895EEE8F2E069
:1008C0001382128288EE93E0A0E0B0E084839583E7
:1008D000A683B7838EE591E09183808385EC90E0D9
:1008E0009587848784EC90E09787868780EC90E0FA
:1008F000918B808B81EC90E0938B828B82EC90E0EB
:10090000958B848B86EC90E0978B868B118E128E64
:10091000138E148EEBE2F3E080ED97E092A381A3B7
:10092000178A108E13A214A215A216A21482158281
:100930000895CF93DF93CDB7DEB72A970FB6F8941B
:10094000DEBF0FBECDBF789484B5826084BD84B510
:10095000816084BD85B5826085BD85B5816085BDBA
:1009600080916E00816080936E0010928100809172
:1009700081008260809381008091810081608093FA
:100980008100809180008160809380008091B1001F
:1009900084608093B1008091B00081608093B0004A
:1009A00080917A00846080937A0080917A008260DE
:1009B00080937A0080917A00816080937A008091A0
:1009C0007A00806880937A001092C1008EE0898757
:1009D0008FE08A8788E0E4E0F1E0DE011196019083
:1009E0000D928A95E1F710922F031092300381E067
:1009F0008093310392E09093420380932B031092F3
:100A00002D0310922C0380932E03AAE3B3E0FE0182
:100A1000319688E08E0F91919D938E13FCCF89853E
:100A2000809332038A858093330310E080914203E0
:100A3000181798F4812F90E09C01255D3C4F7901B7
:100A400061E0F90187810E94090160912C03F7019F
:100A500087810E94D9001F5FE9CF0AE313E0E8E035
:100A60003E2E300E780161E0F80181918F010E94E5
:100A7000090160912E03F70180810E94D900301294
:100A8000F1CF60E070E0CB010E948D0288E795E035
:100A900090934D0380934C03E0919E02F0919F024E
:100AA00082E08083E0919A02F0919B021082E091B3
:100AB0009C02F0919D0280E180831092A602E09159
:100AC000A202F091A30286E08083E091A002F0915F
:100AD000A102808180618083E091A002F091A10257
:100AE000808188608083E091A002F091A1028081E2
:100AF00080688083E091A002F091A10280818F7DC7
:100B0000808360E084E00E94090162E083E00E944B
:100B1000090161E080E10E94090161E081E10E9438
:100B2000090160E080E10E94D90060E081E10E945B
:100B3000D90062E082E00E94090185E792E090938B
:100B4000010180930001809169008C7F8260809315
:100B50006900E89A5CE6A52E51E0B52E6AE8C62E3B
:100B600061E0D62E88248394912C0E94B500892BB5
:100B700031F061E080E10E94D90060E005C060E0F2
:100B800080E10E94D90061E081E10E94D90060917A
:100B9000840270E080E090E00E948D0280918402E7
:100BA0001F928F93BF92AF92DF92CF920E94D30792
:100BB0000F900F900F900F900F900F90F6010190F3
:100BC0000020E9F73197AF014A5851406AE871E0D7
:100BD0008EE892E00E946B0142E050E066E871E02E
:100BE0008EE892E00E946B01809130038111C3C0B6
:100BF0000E94450100914E0310914F032091500334
:100C000030915103AB01BC01401B510B620B730BC4
:100C100080914C0390914D03092E000CAA0BBB0B45
:100C2000481759076A077B0708F454C10E94450119
:100C300060934E0370934F0380935003909351033E
:100C400080912F0381114DC010E08091420318174D
:100C500058F4E12FF0E0E55DFC4F60912C038781B3
:100C60000E94D9001F5FF1CFE0914303F0E0E55D02
:100C7000FC4F60912E0387850E94D9008091430329
:100C80008F5F883018F48093430302C010924303AF
:100C900010914303E12FF0E0E55DFC4F60912D03DF
:100CA00087850E94D900940102C0220F331F1A9534
:100CB000E2F78901F12C80914203F81608F00AC18D
:100CC000EF2DF0E0E55DFC4F818D90E080239123D6
:100CD000892B29F060912B0387810E94D900F3941E
:100CE000EACF0AE313E060912E03F80181918F01AE
:100CF0000E94D9003012F7CFE0914303F0E0E55DA8
:100D0000FC4F60912C0387810E94D900809143039E
:100D10008F5F8093430390914203891710F01092E4
:100D200043030091430310E0055D1C4F60912B03CA
:100D3000F80187810E94D900E12CF12C075E1F4F3A
:100D4000F801808190E00E2C02C0959587950A9459
:100D5000E2F780FF08C060912D03F701E55DFC4FCD
:100D600087850E94D900FFEFEF1AFF0A28E0E216FC
:100D7000F10431F7AFC080912F03811158C04AE3CD
:100D8000E42E43E0F42E00E010E0270160912D03F3
:100D9000F70180810E94D9003401002E02C0660C48
:100DA000771C0A94E2F7212C80914203281688F4DC
:100DB000E22DF0E0E55DFC4F818D90E086219721EA
:100DC000892B29F060912B0387810E94D9002394FD
:100DD000EBCF80914C0390914D038230910538F018
:100DE000880F991F880F991F05970197F1F7712CAC
:100DF00080914203781658F4E72DF0E0E55DFC4F52
:100E000060912C0387810E94D9007394F1CFFFEF8A
:100E1000EF1AFF0A60912E03F20180810E94D9002F
:100E20000F5F1F4F0830110509F0AFCF53C0712C71
:100E300080914203781608F04DC0072D10E0055D43
:100E40001C4F60912B03F80187810E94D900412C2F
:100E5000512C7801F9E1EF0EF11CF701808190E04F
:100E6000042C02C0959587950A94E2F780FF08C08C
:100E700060912D03F201E55DFC4F87850E94D9004A
:100E8000FFEF4F1A5F0A28E04216510431F78091B4
:100E90004C0390914D038230910538F0880F991FD3
:100EA000880F991F05970197F1F78AE3E82E83E0F1
:100EB000F82E60912E03F70181917F010E94D900E5
:100EC0003E10F7CF60912C03F80187810E94D90072
:100ED0007394AECF0E946B0248CE052E97FB1EF492
:100EE00000940E94840757FD07D00E94970707FCD3
:100EF00003D04EF40C94840750954095309521957D
:100F00003F4F4F4F5F4F0895909580957095619535
:100F10007F4F8F4F9F4F08950E94B907A59F900D57
:100F2000B49F900DA49F800D911D11240895A1E2FE
:100F30001A2EAA1BBB1BFD010DC0AA1FBB1FEE1F53
:100F4000FF1FA217B307E407F50720F0A21BB30B9E
:100F5000E40BF50B661F771F881F991F1A9469F71A
:100F600060957095809590959B01AC01BD01CF0176
:100F70000895A29FB001B39FC001A39F700D811D72
:100F80001124911DB29F700D811D1124911D089592
:100F9000EE0FFF1F0590F491E02D099481E090E0A1
:100FA000F8940C94AB0AAEE0B0E0E9EDF7E00C94F5
:100FB000820A0D891E8986E08C831A8309838FEF4C
:100FC0009FE79E838D83AE01475E5F4F6F89788D6B
:100FD000CE0101960E94F6072F813885F801E20FB5
:100FE000F31F10822E96E4E00C949E0AACE0B0E071
:100FF000ECEFF7E00C94740A7C016B018A01FC01B0
:1010000017821682838181FFBDC1CE0101964C01FA
:10101000F7019381F60193FD859193FF81916F0113
:10102000882309F4ABC1853239F493FD859193FF90
:1010300081916F01853229F4B70190E00E94DE09A9
:10104000E7CF512C312C20E02032A0F48B3269F014
:1010500030F4803259F0833269F420612CC08D3233
:1010600039F0803339F4216026C02260246023C027
:10107000286021C027FD27C030ED380F3A3078F4C2
:1010800026FF06C0FAE05F9E300D1124532E13C0D8
:101090008AE0389E300D1124332E20620CC08E322F
:1010A00021F426FD6BC1206406C08C3611F4206843
:1010B00002C0883641F4F60193FD859193FF81913A
:1010C0006F018111C1CF982F9F7D9554933028F4E3
:1010D0000C5F1F4FFFE3F9830DC0833631F0833778
:1010E00071F0833509F05BC022C0F80180818983EB
:1010F0000E5F1F4F44244394512C540115C03801F6
:10110000F2E06F0E711CF801A080B18026FF03C0D1
:10111000652D70E002C06FEF7FEFC5012C870E9444
:10112000D3092C0183012C852F77222E17C038017B
:10113000F2E06F0E711CF801A080B18026FF03C0A1
:10114000652D70E002C06FEF7FEFC5012C870E9414
:10115000C8092C012C852068222E830123FC1BC08A
:10116000832D90E048165906B0F4B70180E290E074
:101170000E94DE093A94F4CFF50127FC859127FE01
:1011800081915F01B70190E00E94DE0931103A942D
:10119000F1E04F1A51084114510471F7E5C084364B
:1011A00011F0893639F5F80127FF07C06081718198
:1011B000828193810C5F1F4F08C060817181072E6F
:1011C000000C880B990B0E5F1F4F2F76722E97FF26
:1011D00009C090958095709561957F4F8F4F9F4F77
:1011E0002068722E2AE030E0A4010E94160AA82E80
:1011F000A81844C0853729F42F7EB22E2AE030E0AB
:1012000025C0F22FF97FBF2E8F36C1F018F4883534
:1012100079F0B4C0803719F0883721F0AFC02F2F94
:101220002061B22EB4FE0DC08B2D8460B82E09C093
:1012300024FF0AC09F2F9660B92E06C028E030E038
:1012400005C020E130E002C020E132E0F801B7FE45
:1012500007C060817181828193810C5F1F4F06C03E
:101260006081718180E090E00E5F1F4FA4010E94B9
:10127000160AA82EA818FB2DFF777F2E76FE0BC02E
:10128000372D3E7FA51450F474FE0AC072FC08C0CE
:10129000372D3E7E05C0BA2C372D03C0BA2C01C0B5
:1012A000B52C34FF0DC0FE01EA0DF11D80818033A5
:1012B00011F4397E09C032FF06C0B394B39404C060
:1012C000832F867809F0B39433FD13C030FF06C036
:1012D0005A2CB31418F4530C5B18B32CB31468F4E1
:1012E000B70180E290E03C870E94DE09B3943C8520
:1012F000F5CFB31410F43B1801C0312C34FF12C0E9
:10130000B70180E390E03C870E94DE093C8532FF14
:1013100017C031FD03C088E790E002C088E590E087
:10132000B7010CC0832F867859F031FF02C08BE2E1
:1013300001C080E237FD8DE2B70190E00E94DE0936
:10134000A51438F4B70180E390E00E94DE095A94B6
:10135000F7CFAA94F401EA0DF11D8081B70190E066
:101360000E94DE09A110F5CF332009F451CEB70158
:1013700080E290E00E94DE093A94F6CFF701868180
:10138000978102C08FEF9FEF2C96E2E10C94900AB8
:10139000FC010590615070400110D8F78095909540
:1013A0008E0F9F1F0895FC01615070400190011045
:1013B000D8F7809590958E0F9F1F08950F931F93D8
:1013C000CF93DF93FB01238121FD03C08FEF9FEFBC
:1013D00028C022FF16C046815781248135814217DB
:1013E000530744F4A081B1819D012F5F3F4F3183AA
:1013F00020838C93268137812F5F3F4F378326834D
:1014000010C0EB01092F182F0084F185E02D0995FC
:10141000892BE1F68E819F8101969F838E83812F98
:10142000902FDF91CF911F910F910895FA01AA2774
:10143000283051F1203181F1E8946F936E7F6E5F17
:101440007F4F8F4F9F4FAF4FB1E03ED0B4E03CD0C5
:10145000670F781F891F9A1FA11D680F791F8A1FA8
:10146000911DA11D6A0F711D811D911DA11D20D00F
:1014700009F468943F912AE0269F11243019305DC9
:101480003193DEF6CF010895462F4770405D4193BA
:10149000B3E00FD0C9F7F6CF462F4F70405D4A3307
:1014A00018F0495D31FD4052419302D0A9F7EACFCF
:1014B000B4E0A6959795879577956795BA95C9F7FE
:1014C00000976105710508959B01AC010A2E0694F1
:1014D0005795479537952795BA95C9F7620F731FAA
:1014E000841F951FA01D08952F923F924F925F92E7
:1014F0006F927F928F929F92AF92BF92CF92DF9224
:10150000EF92FF920F931F93CF93DF93CDB7DEB788
:10151000CA1BDB0B0FB6F894DEBF0FBECDBF09941C
:101520002A88398848885F846E847D848C849B8473
:10153000AA84B984C884DF80EE80FD800C811B8181
:10154000AA81B981CE0FD11D0FB6F894DEBF0FBEB0
:0A155000CDBFED010895F894FFCF20
:10155A006A016A01060708090A0B0C0D3F065B4F70
:10156A00666D7D077F6F777C395E79713D76060EF1
:10157A00763800543F7367506D783E3E00766E5B56
:10158A000040010000000A00000064000000E803B7
:10159A00000010270000A086010040420F0080963C
:1015AA00980000E1F50500CA9A3B0000000002021B
:1015BA006B019A014902CB01A901BD0143757272FF
:1015CA00656E7420446973706C61792076616C75FC
:0A15DA00653A202564000D0A0000A8
:00000001FF
