:100000000C9462000C9423050C94FC040C948A005C
:100010000C948A000C948A000C948A000C948A0038
:100020000C948A000C948A000C948A000C948A0028
:100030000C948A000C948A000C948A000C948A0018
:100040000C94B2040C948A000C9470050C944A052C
:100050000C948A000C948A000C948A000C948A00F8
:100060000C948A000C948A000000000024002700F1
:100070002A0000000000250028002B0000000000DE
:1000800023002600290004040404040404040202DA
:100090000202020203030303030301020408102007
:1000A0004080010204081020010204081020000012
:1000B0000008000201000003040700000000000027
:1000C0000000A20511241FBECFEFD8E0DEBFCDBFD8
:1000D00012E0A0E0B1E0E0EAFBE102C005900D9281
:1000E000A23FB107D9F724E0A2EFB2E001C01D9210
:1000F000A43EB207E1F710E0C2E6D0E004C02197C9
:10010000FE010E94EB0AC136D107C9F70E9404061E
:100110000C94CE0D0C940000833081F028F48130D3
:1001200099F08230A1F008958730A9F08830B9F0B5
:100130008430D1F4809180008F7D03C08091800055
:100140008F7780938000089584B58F7702C084B53F
:100150008F7D84BD08958091B0008F7703C080911A
:10016000B0008F7D8093B0000895CF93DF93282F48
:1001700030E0F901E255FF4F8491F901E656FF4F57
:10018000D491F901EA57FF4FC491CC2391F081112A
:100190000E948C00EC2FF0E0EE0FFF1FE458FF4FA1
:1001A000A591B491EC91ED2381E090E021F480E001
:1001B00002C080E090E0DF91CF9108951F93CF932C
:1001C000DF93282F30E0F901E255FF4F8491F901C8
:1001D000E656FF4FD491F901EA57FF4FC491CC2363
:1001E000C9F0162F81110E948C00EC2FF0E0EE0F69
:1001F000FF1FEE58FF4FA591B4918FB7F8941111DE
:1002000005C09C91ED2FE095E92302C0EC91ED2B08
:10021000EC938FBFDF91CF911F910895CF93DF9320
:1002200090E0FC01E656FF4F2491FC01EA57FF4F96
:100230008491882361F190E0880F991FFC01E859AF
:10024000FF4FC591D491FC01EE58FF4FA591B49199
:10025000611109C09FB7F894888120958223888313
:10026000EC912E230BC0623061F49FB7F894388173
:10027000822F809583238883EC912E2B2C939FBF14
:1002800006C08FB7F894E8812E2B28838FBFDF91AB
:10029000CF9108953FB7F89480910504909106049A
:1002A000A0910704B091080426B5A89B05C02F3F74
:1002B00019F00196A11DB11D3FBFBA2FA92F982F8C
:1002C0008827820F911DA11DB11DBC01CD0142E007
:1002D000660F771F881F991F4A95D1F708958F924F
:1002E0009F92AF92BF92CF92DF92EF92FF920E94C5
:1002F0004A014B015C0182E3C82ED12CE12CF12C88
:100300000E944A01DC01CB0188199909AA09BB099D
:10031000883E9340A105B10558F021E0C21AD108EA
:10032000E108F10888EE880E83E0981EA11CB11C3C
:10033000C114D104E104F10419F7FF90EF90DF90AC
:10034000CF90BF90AF909F908F9008950895CF92D7
:10035000DF92EF92FF920F931F93CF93DF936C0185
:100360007A018B01C0E0D0E0CE15DF0589F0D8011D
:100370006D918D01D601ED91FC910190F081E02D00
:10038000C6010995892B11F47E0102C02196ECCF9C
:10039000C701DF91CF911F910F91FF90EF90DF90F8
:1003A000CF90089581E08093F8020895FC01428384
:1003B00053836483758386819781A085B185480FB7
:1003C000591F6A1F7B1F428753876487758708956B
:1003D000089580E090E00895FC01538D448D252F11
:1003E00030E0842F90E0821B930B541710F0CF96CF
:1003F000089501970895FC01918D828D981761F001
:10040000828DDF01A80FB11D5D968C91928D9F5F4B
:100410009F73928F90E008958FEF9FEF0895FC01F6
:10042000918D828D981731F0828DE80FF11D858DA9
:1004300090E008958FEF9FEF0895FC01918D228D3C
:10044000892F90E0805C9F4F821B91098F739927C1
:10045000089589E094E00E941D0221E0892B09F4AF
:1004600020E0822F0895FC01848DDF01A80FB11DCB
:10047000A35ABF4F2C91848D90E001968F739927DA
:10048000848FA689B7892C93A089B1898C918064C7
:100490008C93938D848D981306C00288F389E02D88
:1004A00080818F7D80830895EF92FF920F931F9339
:1004B000CF93DF93EC0181E0888F9B8D8C8D981317
:1004C00005C0E889F989808185FD24C0F62E0B8D51
:1004D00010E00F5F1F4F0F731127E02E8C8DE81275
:1004E0000CC00FB607FCFACFE889F989808185FF37
:1004F000F5CFCE010E943302F1CF8B8DFE01E80FC4
:10050000F11DE35AFF4FF0820B8FEA89FB8980814E
:10051000806207C0EE89FF896083E889F98980815C
:100520008064808381E090E0DF91CF911F910F91F3
:10053000FF90EF900895CF93DF93EC01888D88238F
:10054000C9F0EA89FB89808185FD05C0A889B98940
:100550008C9186FD0FC00FB607FCF5CF808185FF1B
:10056000F2CFA889B9898C9185FFEDCFCE010E9489
:100570003302E7CFDF91CF91089580E090E0892B9F
:1005800029F00E94290281110C9400000895CF9354
:10059000DF93EC01EE85FF85309709F009952FB7C1
:1005A000F8948091A6049091A704A091A804B0911A
:1005B000A9042FBF8E839F83A887B9874A815B8157
:1005C0006C817D81840F951FA61FB71F8A879B872B
:1005D000AC87BD87DF91CF9108950F931F93FC01E6
:1005E0000285138524853585401B510B620B730BE7
:1005F00077FD02C0808901C080E01F910F910895AE
:1006000060E080E10E94DE0060E081E10C94DE00A9
:1006100060E080E10E94DE0061E081E10C94DE0098
:1006200061E080E10E94DE0060E081E10C94DE0088
:10063000CF93DF93009779F0FC0101900020E9F758
:100640003197AF01481B590BBC0189E094E00E942F
:10065000A701EC0102C0C0E0D0E042E050E065EC50
:1006600072E089E094E00E94A7018C0F9D1FDF914A
:10067000CF9108950E946F0183E00E94B500892BFD
:1006800039F481E08093FB0285E791E00C94180334
:1006900008952F923F924F925F926F927F928F9226
:1006A0009F92AF92BF92CF92DF92EF92FF920F9301
:1006B0001F93CF93DF9300D0CDB7DEB76B017C01E2
:1006C0008DB79EB79A8389836090D404E62DF0E0BD
:1006D0004F0191E0891A91088DB79EB78E1B9F0B31
:1006E0000FB6F8949EBF0FBE8DBF0DB71EB70F5F3C
:1006F0001F4FEE0FFF1FEE0FFF1FDF01A35DBE4F69
:100700004D915D916D917C91EF5CFE4F8081918167
:10071000A281B381C816D906EA06FB0624F0902F01
:10072000F80125E20EC081E090E0A0E0B0E0841B7B
:10073000950BA60BB70BC816D906EA06FB067CF389
:100740000DC08E2F891B861528F42193FACF8A308D
:1007500008F04FC0F80180E090E05CC0F7FE0EC0EA
:1007600085E2F8018083F094E094D094C094C11C99
:10077000D11CE11CF11C7724739401C0712C7614F8
:1007800028F5A72CB12CF401EA19FB09EE0FFF1F85
:10079000EE0FFF1FEF5CFE4F2080318042805380C0
:1007A000C701B601A20191010E94680AF801EA0D91
:1007B000FB1D2083A22FB0E0A20191010E94870AB5
:1007C000C61AD70AE80AF90A7394D9CF8091C304EC
:1007D0008111C0CF20E034E2822F90E08815990586
:1007E0000CF0B8CFF801E80FF91F80818111AFCF6D
:1007F00030832F5FF1CFA191B0E0A55FBE4F2C9168
:10080000DC01A354BB4F8815990509F4206859965B
:100810002C930196861578F389819A810FB6F89406
:100820009EBF0FBE8DBF0F900F90DF91CF911F9194
:100830000F91FF90EF90DF90CF90BF90AF909F907F
:100840008F907F906F905F904F903F902F90089582
:100850000E94F10ACF93DF936091F50281E068274F
:100860006093F5028DE00E94DE0089E991E00E942C
:10087000180380910004909101049F938F9389EC59
:1008800091E09F938F93CEEFD2E0DF93CF930E94BE
:10089000F60ACE010E94180384EE91E00E9418032C
:1008A0008CE092E00E941803E8EFF3E06681778124
:1008B0004481558122813381808191817F936F931F
:1008C0005F934F933F932F939F938F9388E292E090
:1008D0009F938F93DF93CF930E94F60ACE010E94DD
:1008E0001803809102049091FD02282F082E000C1D
:1008F000330B3F938F931F929F9382E492E09F93D9
:100900008F93DF93CF930E94F60ACE010E941803C3
:10091000E091FD02F0E0EE0FFF1FE850FC4F208158
:10092000318180910004909101043F932F939F9314
:100930008F9381E692E09F938F93DF93CF930E94F2
:10094000F60A8DB79EB782960FB6F8949EBF0FBE7B
:100950008DBFCE010E94180386E992E0DF91CF910E
:100960000C9418031F920F920FB60F9211242F931D
:100970003F938F939F93AF93BF938091A6049091E1
:10098000A704A091A804B091A9043091040423E025
:10099000230F2D3720F40196A11DB11D05C026E8B7
:1009A000230F0296A11DB11D209304048093A60479
:1009B0009093A704A093A804B093A9048091050480
:1009C00090910604A0910704B09108040196A11D1E
:1009D000B11D8093050490930604A0930704B0937F
:1009E0000804BF91AF919F918F913F912F910F90EC
:1009F0000FBE0F901F9018951F920F920FB60F9277
:100A000011242F933F934F935F936F937F938F9313
:100A10009F93AF93BF93EF93FF93E0910201F09107
:100A200003010995FF91EF91BF91AF919F918F9134
:100A30007F916F915F914F913F912F910F900FBEDA
:100A40000F901F9018951F920F920FB60F921124BE
:100A50002F933F934F935F936F937F938F939F93C6
:100A6000AF93BF93EF93FF93E0910001F0910101E9
:100A70000995FF91EF91BF91AF919F918F917F91D8
:100A80006F915F914F913F912F910F900FBE0F90FB
:100A90001F9018951F920F920FB60F9211242F934B
:100AA0003F934F935F936F937F938F939F93AF93F6
:100AB000BF93EF93FF9389E094E00E943302FF918C
:100AC000EF91BF91AF919F918F917F916F915F91C6
:100AD0004F913F912F910F900FBE0F901F9018953F
:100AE0001F920F920FB60F9211242F938F939F9303
:100AF000EF93FF93E0911904F0911A048081E09143
:100B00001F04F091200482FD12C090818091220484
:100B10008F5F8F7320912304821751F0E09122049C
:100B2000F0E0E75FFB4F958F8093220401C0808146
:100B3000FF91EF919F918F912F910F900FBE0F908A
:100B40001F901895E9E0F4E01382128288EE93E09A
:100B5000A0E0B0E084839583A683B7838DE591E020
:100B60009183808385EC90E09587848784EC90E086
:100B70009787868780EC90E0918B808B81EC90E06A
:100B8000938B828B82EC90E0958B848B86EC90E04B
:100B9000978B868B118E128E138E148EEDEBF4E0F4
:100BA00080ED97E092A381A3178A108E13A214A25E
:100BB00015A216A214821582EAEAF4E08FE691E00B
:100BC0009183808381E0808B178616861286138638
:100BD000148615862FB7F8948091A6049091A704E7
:100BE000A091A804B091A9042FBF86839783A08702
:100BF000B187F28BE18B1282138214821582828775
:100C00009387A487B5870895CF93DF93CDB7DEB7D9
:100C10002B970FB6F894DEBF0FBECDBF789484B586
:100C2000826084BD84B5816084BD85B5826085BDE8
:100C300085B5816085BD80916E00816080936E0076
:100C40001092810080918100826080938100809168
:100C50008100816080938100809180008160809319
:100C600080008091B10084608093B1008091B000D9
:100C700081608093B00080917A00846080937A00D4
:100C800080917A00826080937A0080917A008160FE
:100C900080937A0080917A00806880937A00109225
:100CA000C1008EE088878FE0898783E18A8787E0AB
:100CB000E4E0F1E0DE01119601900D928A95E1F7F2
:100CC0001092C1041092C20481E08093C30493E0A7
:100CD0009093D4041092BD041092BF048093BE047C
:100CE0008093C004ACECB4E0FE01319688E08E0F36
:100CF00091919D938E13FCCF88858093C404898540
:100D00008093C5048A858093C60410E08091D40442
:100D1000181798F4812F90E09C0123543B4F7901E0
:100D200061E0F90187810E940E016091BE04F70124
:100D300087810E94DE001F5FE9CF0CEC14E0C80140
:100D400098E0292E280E780161E0F80181918F0149
:100D50000E940E016091C004F70180810E94DE00B4
:100D60002012F1CF60E070E0CB010E94490388E7D8
:100D700095E09093DF048093DE04E0911904F091F4
:100D80001A0482E08083E0911504F0911604108229
:100D9000E0911704F091180480E1808310922104FF
:100DA000E0911D04F0911E0486E08083E0911B0415
:100DB000F0911C04808180618083E0911B04F0919C
:100DC0001C04808188608083E0911B04F0911C04E6
:100DD000808180688083E0911B04F0911C048081F5
:100DE0008F7D808361E08DE00E940E0162E084E0EF
:100DF0000E940E0162E082E10E940E0161E080E14A
:100E00000E940E0161E081E10E940E0162E085E036
:100E10000E940E0160E082E10E940E0162E082E029
:100E20000E940E0182ED91E09093010180930001F8
:100E3000809169008C7F826080936900E89A62E00B
:100E400083E00E940E018AE393E090930301809374
:100E5000020180916900837F886080936900E99A2C
:100E600060E080E10E94DE0060E081E10E94DE003F
:100E70008AE294E09093B9048093B80488EE93E0FA
:100E8000A0E0B0E08093AC049093AD04A093AE04D6
:100E9000B093AF048091B0049091B104A091B204DA
:100EA000B091B30488519C4FAF4FBF4F8093B404AF
:100EB0009093B504A093B604B093B70418ECC12E78
:100EC00012E0D12E0EEFA02E02E0B02E3324339488
:100ED00088248394912C8FB7F8944091A604509164
:100EE000A7046091A8047091A9048FBF8AEA94E0D6
:100EF0000E94ED02882321F08AEA94E00E94C70252
:100F000080910304811127C085E00E94B500892BE0
:100F100009F0A6C28091F8028823E9F01092F80245
:100F200084E00E94B500892B09F09DC20E9408034D
:100F300080910004909101040197909301048093A3
:100F40000004809100049091010497FF04C0109266
:100F500001041092000482E10E94B500892B09F47B
:100F600047C00E946F0182E10E94B500892BD9F72A
:100F700085E00E94B500892BD9F180910204837825
:100F800087FF03C081508C6F8F5F80930204E091D4
:100F9000020481E08E0F80930204809100049091FE
:100FA0000104EE0FFF0BE850FC4F918380832091EA
:100FB00002048091000490910104422F022E000C43
:100FC000550B5F932F939F938F93DF92CF92BF9296
:100FD000AF920E94F60A8EEF92E00E9418031092E0
:100FE000FD023092FC020FB6F894DEBF0FBECDBFFB
:100FF0008091FB02882309F447C01092FB023092D3
:1010000003048091020418160CF05FC28091FC0268
:10101000811151C280910204813009F44CC2809147
:10102000FD028F5F8093FD02809100049091010486
:10103000E091FD02F0E0EE0FFF1FE850FC4F208131
:101040003181821793070CF022C23092FA0220916C
:10105000FD0230E03093F7022093F6028091FD020A
:101060006091020490E0062E000C770B0E94C30AE8
:101070008093FD0280910204082E000C990B281722
:10108000390711F43092FA028091FA02882381F133
:101090000E9410038091F8028823B1F01092F802A8
:1010A0008091000490910104019690930104809333
:1010B00000048091000490910104883E934024F044
:1010C0001092010410920004809100049091010498
:1010D000E091FD02F0E0EE0FFF1FE850FC4F208191
:1010E00031818217930721F41092FA020E940003C3
:1010F0008091F902882379F10E9408038091F80217
:101100008823A9F01092F8028091000490910104C4
:1011100001979093010480930004809100049091C2
:10112000010497FF04C01092010410920004809102
:10113000000490910104E091FD02F0E0EE0FFF1F2A
:10114000E850FC4F208131818217930721F41092DF
:10115000F9020E9400036091000470910104072EBF
:10116000000C880B990B0E9449038091C2048111E5
:10117000C3C00E944A010091E0041091E104209153
:10118000E2043091E304AB01BC01401B510B620B44
:10119000730B8091DE049091DF04092E000CAA0BE2
:1011A000BB0B481759076A077B0708F456C10E9412
:1011B0004A016093E0047093E1048093E204909309
:1011C000E3048091C10481114DC010E08091D404EA
:1011D000181758F4E12FF0E0E354FB4F6091BE0480
:1011E00087810E94DE001F5FF1CFE091D504F0E01F
:1011F000E354FB4F6091C00487850E94DE0080911C
:10120000D5048F5F883018F48093D50402C0109203
:10121000D5041091D504E12FF0E0E354FB4F609129
:10122000BF0487850E94DE00C40102C0880F991F99
:101230001A95E2F78C01F12C8091D404F81608F08D
:101240000CC1EF2DF0E0E354FB4F818D90E0802343
:101250009123892B29F06091BD0487810E94DE00D3
:10126000F394EACF0CEC14E06091C004F801819192
:101270008F010E94DE002012F7CFE091D504F0E04C
:10128000E354FB4F6091BE0487810E94DE00809191
:10129000D5048F5F8093D5049091D404891710F002
:1012A0001092D5040091D50410E003541B4F6091B7
:1012B000BD04F80187810E94DE00E12CF12C075E5D
:1012C0001F4FF801808190E00E2C02C09595879504
:1012D0000A94E2F780FF08C06091BF04F701E3546D
:1012E000FB4F87850E94DE00FFEFEF1AFF0A28E020
:1012F000E216F10431F7B1C08091C10481115AC0E6
:101300006CECE62E64E0F62E00E010E02701609120
:10131000BF04F70180810E94DE003401002E02C06C
:10132000660C771C0A94E2F720E08091D404281719
:1013300098F4E22FF0E0E354FB4F818D90E086219A
:101340009721892B39F06091BD0487812B870E94FA
:10135000DE002B852F5FE9CF8091DE049091DF04C2
:101360008230910538F0880F991F880F991F0597D3
:101370000197F1F7712C8091D404781658F4E72D79
:10138000F0E0E354FB4F6091BE0487810E94DE00D1
:101390007394F1CFFFEFEF1AFF0A6091C004F201DE
:1013A00080810E94DE000F5F1F4F0830110509F099
:1013B000ADCF53C0512C8091D404581608F04DC0C5
:1013C000052D10E003541B4F6091BD04F801878187
:1013D0000E94DE00612C712C7801F9E1EF0EF11C06
:1013E000F701808190E0062C02C0959587950A94BC
:1013F000E2F780FF08C06091BF04F301E354FB4FA4
:1014000087850E94DE00FFEF6F1A7F0A28E06216D0
:10141000710431F78091DE049091DF0482309105F0
:1014200038F0880F991F880F991F05970197F1F7DA
:101430003CECE32E34E0F32E6091C004F70181917F
:101440007F010E94DE002E10F7CF6091BE04F801EC
:1014500087810E94DE005394AECF0E94BD023BCD37
:101460000E94000378CD0E941003809100049091A7
:10147000010401969093010480930004809100047C
:1014800090910104883E93400CF061CD64CD809131
:10149000000490910104E091FD02F0E0EE0FFF1FC7
:1014A000E850FC4F20813181281739070CF0CFCD4F
:1014B0003092F902CCCD1092FC028091F803909109
:1014C000F90390930104809300040E940003DCCD93
:1014D000052E97FB1EF400940E947F0A57FD07D04B
:1014E0000E94920A07FC03D04EF40C947F0A509598
:1014F0004095309521953F4F4F4F5F4F0895909500
:101500008095709561957F4F8F4F9F4F08950E94F2
:10151000B40AA59F900DB49F900DA49F800D911DBE
:1015200011240895A1E21A2EAA1BBB1BFD010DC0B8
:10153000AA1FBB1FEE1FFF1FA217B307E407F50783
:1015400020F0A21BB30BE40BF50B661F771F881F5F
:10155000991F1A9469F760957095809590959B01F5
:10156000AC01BD01CF010895A29FB001B39FC0019E
:10157000A39F700D811D1124911DB29F700D811DBF
:101580001124911D089597FB072E16F4009407D09F
:1015900077FD09D00E94D70A07FC05D03EF490954C
:1015A00081959F4F0895709561957F4F0895AA1B6F
:1015B000BB1B51E107C0AA1FBB1FA617B70710F03E
:1015C000A61BB70B881F991F5A95A9F78095909570
:1015D000BC01CD010895EE0FFF1F0590F491E02DA1
:1015E000099481E090E0F8940C94CE0DAEE0B0E068
:1015F000ECEFFAE00C94A50D0D891E8986E08C8332
:101600001A8309838FEF9FE79E838D83AE01475E28
:101610005F4F6F89788DCE0101960E94190B2F8143
:101620003885F801E20FF31F10822E96E4E00C9447
:10163000C10DACE0B0E0EFE1FBE00C94970D7C0154
:101640006B018A01FC0117821682838181FFBDC173
:10165000CE0101964C01F7019381F60193FD85912E
:1016600093FF81916F01882309F4ABC1853239F46E
:1016700093FD859193FF81916F01853229F4B70124
:1016800090E00E94010DE7CF512C312C20E0203258
:10169000A0F48B3269F030F4803259F0833269F46F
:1016A00020612CC08D3239F0803339F4216026C09E
:1016B0002260246023C0286021C027FD27C030EDB0
:1016C000380F3A3078F426FF06C0FAE05F9E300DFE
:1016D0001124532E13C08AE0389E300D1124332E6E
:1016E00020620CC08E3221F426FD6BC1206406C03E
:1016F0008C3611F4206802C0883641F4F60193FD5F
:10170000859193FF81916F018111C1CF982F9F7DAA
:101710009554933028F40C5F1F4FFFE3F9830DC0FD
:10172000833631F0833771F0833509F05BC022C016
:10173000F801808189830E5F1F4F44244394512C0C
:10174000540115C03801F2E06F0E711CF801A08041
:10175000B18026FF03C0652D70E002C06FEF7FEF00
:10176000C5012C870E94F60C2C0183012C852F7754
:10177000222E17C03801F2E06F0E711CF801A08014
:10178000B18026FF03C0652D70E002C06FEF7FEFD0
:10179000C5012C870E94EB0C2C012C852068222E81
:1017A000830123FC1BC0832D90E048165906B0F43A
:1017B000B70180E290E00E94010D3A94F4CFF50168
:1017C00027FC859127FE81915F01B70190E00E947F
:1017D000010D31103A94F1E04F1A510841145104AF
:1017E00071F7E5C0843611F0893639F5F80127FF25
:1017F00007C060817181828193810C5F1F4F08C097
:1018000060817181072E000C880B990B0E5F1F4FB2
:101810002F76722E97FF09C09095809570956195EF
:101820007F4F8F4F9F4F2068722E2AE030E0A40137
:101830000E94390DA82EA81844C0853729F42F7EA0
:10184000B22E2AE030E025C0F22FF97FBF2E8F366E
:10185000C1F018F4883579F0B4C0803719F08837B2
:1018600021F0AFC02F2F2061B22EB4FE0DC08B2D02
:101870008460B82E09C024FF0AC09F2F9660B92E3D
:1018800006C028E030E005C020E130E002C020E1E1
:1018900032E0F801B7FE07C06081718182819381D7
:1018A0000C5F1F4F06C06081718180E090E00E5F89
:1018B0001F4FA4010E94390DA82EA818FB2DFF77F9
:1018C0007F2E76FE0BC0372D3E7FA51450F474FE9C
:1018D0000AC072FC08C0372D3E7E05C0BA2C372DD9
:1018E00003C0BA2C01C0B52C34FF0DC0FE01EA0DB7
:1018F000F11D8081803311F4397E09C032FF06C0AA
:10190000B394B39404C0832F867809F0B39433FD65
:1019100013C030FF06C05A2CB31418F4530C5B18D4
:10192000B32CB31468F4B70180E290E03C870E94C6
:10193000010DB3943C85F5CFB31410F43B1801C0EE
:10194000312C34FF12C0B70180E390E03C870E9445
:10195000010D3C8532FF17C031FD03C088E790E0E0
:1019600002C088E590E0B7010CC0832F867859F05B
:1019700031FF02C08BE201C080E237FD8DE2B7018A
:1019800090E00E94010DA51438F4B70180E390E0C7
:101990000E94010D5A94F7CFAA94F401EA0DF11DAB
:1019A0008081B70190E00E94010DA110F5CF332096
:1019B00009F451CEB70180E290E00E94010D3A9403
:1019C000F6CFF7018681978102C08FEF9FEF2C96AB
:1019D000E2E10C94B30DFC010590615070400110E0
:1019E000D8F7809590958E0F9F1F0895FC01615048
:1019F000704001900110D8F7809590958E0F9F1F31
:101A000008950F931F93CF93DF93FB01238121FD53
:101A100003C08FEF9FEF28C022FF16C04681578179
:101A2000248135814217530744F4A081B1819D017F
:101A30002F5F3F4F318320838C93268137812F5F27
:101A40003F4F3783268310C0EB01092F182F0084E6
:101A5000F185E02D0995892BE1F68E819F81019614
:101A60009F838E83812F902FDF91CF911F910F91B4
:101A70000895FA01AA27283051F1203181F1E89424
:101A80006F936E7F6E5F7F4F8F4F9F4FAF4FB1E071
:101A90003ED0B4E03CD0670F781F891F9A1FA11D6C
:101AA000680F791F8A1F911DA11D6A0F711D811D6D
:101AB000911DA11D20D009F468943F912AE0269F32
:101AC00011243019305D3193DEF6CF010895462F91
:101AD0004770405D4193B3E00FD0C9F7F6CF462F72
:101AE0004F70405D4A3318F0495D31FD40524193DB
:101AF00002D0A9F7EACFB4E0A69597958795779598
:101B00006795BA95C9F700976105710508959B011E
:101B1000AC010A2E06945795479537952795BA95A7
:101B2000C9F7620F731F841F951FA01D08952F9280
:101B30003F924F925F926F927F928F929F92AF925D
:101B4000BF92CF92DF92EF92FF920F931F93CF93AA
:101B5000DF93CDB7DEB7CA1BDB0B0FB6F894DEBF41
:101B60000FBECDBF09942A88398848885F846E8467
:101B70007D848C849B84AA84B984C884DF80EE80B1
:101B8000FD800C811B81AA81B981CE0FD11D0FB6BA
:101B9000F894DEBF0FBECDBFED010895F894FFCFDE
:101BA000A601A601060708090A0B0C3F065B4F6653
:101BB0006D7D077F6F777C395E79713D76060E7695
:101BC0003800543F7367506D783E3E00766E5B0080
:101BD00040010000000A00000064000000E803006B
:101BE0000010270000A086010040420F0080969858
:101BF0000000E1F50500CA9A3B000000005402A76E
:101C000001EC019B021D02FB010F0200000000D647
:101C100001ED02C702476F742074726967676572CD
:101C20002F72756E20636F6D6D616E642066726FCA
:101C30006D20757365722121002D2D2D2D2D2D2DDB
:101C40002D2D2D2D2D2D2D2D2D20446562756720D8
:101C5000436F6E736F6C65202D2D2D2D2D2D2D2D29
:101C60002D2D2D2D2D2D2D2D0043757272656E7429
:101C700020636F756E7465722076616C7565203AAD
:101C800020256400202D2D2D2D2D2D204D656D6FCF
:101C900072792062756666657220636F6E74656E18
:101CA00074202D2D2D2D2D2D2D2D20004D454D3108
:101CB0002020204D454D32202020204D454D332001
:101CC0002020204D454D3400256420202020202553
:101CD0006420202020202025642020202020202572
:101CE000640054726967676572436F756E743A2059
:101CF00025642C204D656D436F756E743A20256404
:101D00000043757272656E74204469737020566169
:101D10006C203A2025642C2043757272656E742005
:101D20004D656D76616C2874726967436F756E746A
:101D3000293A202564002D2D2D2D2D2D2D2D2D2DD5
:101D40002D2D2D2D2D2D2D2D2D2D2D2D2D2D2D2DC3
:101D50002D2D2D2D2D2D2D2D2D2D2D2D2D2D2D2DB3
:101D60002D2D2D2D2D0D0A004D656D6F727920736F
:101D700065742061742076616C75652025642E0978
:101D80004D656D6F727920696E6465783A202564BF
:021D90002E0023
:00000001FF
