:100000000C9462000C94AA040C9483040C948A004F
:100010000C948A000C948A000C948A000C948A0038
:100020000C948A000C948A000C948A000C948A0028
:100030000C948A000C948A000C948A000C948A0018
:100040000C9439040C948A000C94F7040C94D10499
:100050000C948A000C948A000C948A000C948A00F8
:100060000C948A000C948A000000000024002700F1
:100070002A0000000000250028002B0000000000DE
:1000800023002600290004040404040404040202DA
:100090000202020203030303030301020408102007
:1000A0004080010204081020010204081020000012
:1000B0000008000201000003040700000000000027
:1000C0000000290511241FBECFEFD8E0DEBFCDBF51
:1000D00012E0A0E0B1E0ECEFF8E102C005900D9273
:1000E000AA39B107D9F724E0AAE9B2E001C01D920C
:1000F000A538B207E1F710E0C2E6D0E004C02197CE
:10010000FE010E949909C136D107C9F70E948B05EB
:100110000C947C0C0C940000833081F028F4813026
:1001200099F08230A1F008958730A9F08830B9F0B5
:100130008430D1F4809180008F7D03C08091800055
:100140008F7780938000089584B58F7702C084B53F
:100150008F7D84BD08958091B0008F7703C080911A
:10016000B0008F7D8093B0000895CF93DF93282F48
:1001700030E0F901E255FF4F8491F901E656FF4F57
:10018000D491F901EA57FF4FC491CC2391F081112A
:100190000E948C00EC2FF0E0EE0FFF1FE458FF4FA1
:1001A000A591B491EC91ED2381E090E021F480E001
:1001B00002C080E090E0DF91CF9108951F93CF932C
:1001C000DF93282F30E0F901E255FF4F8491F901C8
:1001D000E656FF4FD491F901EA57FF4FC491CC2363
:1001E000C9F0162F81110E948C00EC2FF0E0EE0F69
:1001F000FF1FEE58FF4FA591B4918FB7F8941111DE
:1002000005C09C91ED2FE095E92302C0EC91ED2B08
:10021000EC938FBFDF91CF911F910895CF93DF9320
:1002200090E0FC01E656FF4F2491FC01EA57FF4F96
:100230008491882361F190E0880F991FFC01E859AF
:10024000FF4FC591D491FC01EE58FF4FA591B49199
:10025000611109C09FB7F894888120958223888313
:10026000EC912E230BC0623061F49FB7F894388173
:10027000822F809583238883EC912E2B2C939FBF14
:1002800006C08FB7F894E8812E2B28838FBFDF91AB
:10029000CF9108953FB7F8948091A6039091A7035A
:1002A000A091A803B091A90326B5A89B05C02F3F34
:1002B00019F00196A11DB11D3FBFBA2FA92F982F8C
:1002C0008827820F911DA11DB11DBC01CD0142E007
:1002D000660F771F881F991F4A95D1F708950895D3
:1002E000CF92DF92EF92FF920F931F93CF93DF9302
:1002F0006C017A018B01C0E0D0E0CE15DF0589F0FA
:10030000D8016D918D01D601ED91FC910190F081A4
:10031000E02DC6010995892B11F47E0102C02196BA
:10032000ECCFC701DF91CF911F910F91FF90EF901C
:10033000DF90CF90089581E080939F020895089503
:10034000FC01428353836483758386819781A085F2
:10035000B185480F591F6A1F7B1F428753876487E7
:1003600075870895089580E090E00895FC01538D0D
:10037000448D252F30E0842F90E0821B930B54177F
:1003800010F0CF96089501970895FC01918D828D0C
:10039000981761F0828DDF01A80FB11D5D968C91D9
:1003A000928D9F5F9F73928F90E008958FEF9FEFE4
:1003B0000895FC01918D828D981731F0828DE80FA0
:1003C000F11D858D90E008958FEF9FEF0895FC015A
:1003D000918D228D892F90E0805C9F4F821B910927
:1003E0008F73992708958AEA93E00E94E70121E03C
:1003F000892B09F420E0822F0895FC01848DDF0110
:10040000A80FB11DA35ABF4F2C91848D90E0019687
:100410008F739927848FA689B7892C93A089B18976
:100420008C9180648C93938D848D981306C0028880
:10043000F389E02D80818F7D80830895EF92FF9274
:100440000F931F93CF93DF93EC0181E0888F9B8DF7
:100450008C8D981305C0E889F989808185FD24C0B9
:10046000F62E0B8D10E00F5F1F4F0F731127E02E3C
:100470008C8DE8120CC00FB607FCFACFE889F98919
:10048000808185FFF5CFCE010E94FD01F1CF8B8DDC
:10049000FE01E80FF11DE35AFF4FF0820B8FEA894E
:1004A000FB898081806207C0EE89FF896083E889CB
:1004B000F98980818064808381E090E0DF91CF9131
:1004C0001F910F91FF90EF900895CF93DF93EC0170
:1004D000888D8823C9F0EA89FB89808185FD05C064
:1004E000A889B9898C9186FD0FC00FB607FCF5CF9E
:1004F000808185FFF2CFA889B9898C9185FFEDCFE6
:10050000CE010E94FD01E7CFDF91CF91089580E0F9
:1005100090E0892B29F00E94F30181110C940000D6
:100520000895CF93DF93EC01EE85FF85309709F0B6
:1005300009952FB7F8948091470490914804A091B1
:100540004904B0914A042FBF8E839F83A887B9873F
:100550004A815B816C817D81840F951FA61FB71F27
:100560008A879B87AC87BD87DF91CF9108950F93D2
:100570001F93FC010285138524853585401B510B93
:10058000620B730B77FD02C0808901C080E01F9170
:100590000F910895CF93DF93009779F0FC010190BC
:1005A0000020E9F73197AF01481B590BBC018AEADB
:1005B00093E00E947001EC0102C0C0E0D0E042E094
:1005C00050E06CE672E08AEA93E00E9470018C0FC2
:1005D0009D1FDF91CF9108952F923F924F925F928E
:1005E0006F927F928F929F92AF92BF92CF92DF9243
:1005F000EF92FF920F931F93CF93DF9300D0CDB76D
:10060000DEB76B017C018DB79EB79A8389836090BA
:100610007504E62DF0E04F0191E0891A91088DB73D
:100620009EB78E1B9F0B0FB6F8949EBF0FBE8DBF5B
:100630000DB71EB70F5F1F4FEE0FFF1FEE0FFF1F0F
:10064000DF01A35DBE4F4D915D916D917C91EF5C9B
:10065000FE4F80819181A281B381C816D906EA0636
:10066000FB0624F0902FF80125E20EC081E090E017
:10067000A0E0B0E0841B950BA60BB70BC816D906FB
:10068000EA06FB067CF30DC08E2F891B861528F425
:100690002193FACF8A3008F04FC0F80180E090E053
:1006A0005CC0F7FE0EC085E2F8018083F094E09410
:1006B000D094C094C11CD11CE11CF11C772473940C
:1006C00001C0712C761428F5A72CB12CF401EA197D
:1006D000FB09EE0FFF1FEE0FFF1FEF5CFE4F2080A8
:1006E000318042805380C701B601A20191010E946E
:1006F0003E09F801EA0DFB1D2083A22FB0E0A20104
:1007000091010E945D09C61AD70AE80AF90A739492
:10071000D9CF809164048111C0CF20E034E2822FD0
:1007200090E0881599050CF0B8CFF801E80FF91F93
:1007300080818111AFCF30832F5FF1CFA191B0E0E5
:10074000A55FBE4F2C91DC01A25ABB4F88159905BD
:1007500009F4206859962C930196861578F38981BF
:100760009A810FB6F8949EBF0FBE8DBF0F900F9069
:10077000DF91CF911F910F91FF90EF90DF90CF907D
:10078000BF90AF909F908F907F906F905F904F90B1
:100790003F902F9008950E949F09CF93DF9360911F
:1007A0009E0281E0682760939E028DE00E94DE0039
:1007B00085E791E00E94CA028091A2039091A30371
:1007C0009F938F9385EA91E09F938F93C0EAD2E045
:1007D000DF93CF930E94A409CE010E94CA0280EC4D
:1007E00091E00E94CA0288EE91E00E94CA02EAE902
:1007F000F3E0668177814481558122813381808154
:1008000091817F936F935F934F933F932F939F9328
:100810008F9384E092E09F938F93DF93CF930E9416
:10082000A409CE010E94CA028091A40390919D0266
:10083000282F082E000C330B3F938F931F929F930A
:100840008EE192E09F938F93DF93CF930E94A40950
:10085000CE010E94CA028DB79EB74A960FB6F89491
:100860009EBF0FBE8DBF8DE392E0DF91CF910C94C0
:10087000CA021F920F920FB60F9211242F933F932B
:100880008F939F93AF93BF938091470490914804B7
:10089000A0914904B0914A043091A50323E0230FAD
:1008A0002D3720F40196A11DB11D05C026E8230FA8
:1008B0000296A11DB11D2093A50380934704909338
:1008C0004804A0934904B0934A048091A6039091F0
:1008D000A703A091A803B091A9030196A11DB11D82
:1008E0008093A6039093A703A093A803B093A903B2
:1008F000BF91AF919F918F913F912F910F900FBE1C
:100900000F901F9018951F920F920FB60F921124FF
:100910002F933F934F935F936F937F938F939F9307
:10092000AF93BF93EF93FF93E0910201F091030126
:100930000995FF91EF91BF91AF919F918F917F9119
:100940006F915F914F913F912F910F900FBE0F903C
:100950001F9018951F920F920FB60F9211242F938C
:100960003F934F935F936F937F938F939F93AF9337
:10097000BF93EF93FF93E0910001F091010109957E
:10098000FF91EF91BF91AF919F918F917F916F9167
:100990005F914F913F912F910F900FBE0F901F903D
:1009A00018951F920F920FB60F9211242F933F9319
:1009B0004F935F936F937F938F939F93AF93BF9367
:1009C000EF93FF938AEA93E00E94FD01FF91EF917C
:1009D000BF91AF919F918F917F916F915F914F9157
:1009E0003F912F910F900FBE0F901F9018951F925F
:1009F0000F920FB60F9211242F938F939F93EF9323
:100A0000FF93E091BA03F091BB038081E091C003B2
:100A1000F091C10382FD12C090818091C3038F5F6A
:100A20008F732091C403821751F0E091C303F0E06B
:100A3000E655FC4F958F8093C30301C08081FF91E1
:100A4000EF919F918F912F910F900FBE0F901F905C
:100A50001895EAEAF3E01382128288EE93E0A0E0B0
:100A6000B0E084839583A683B7838DE591E091837D
:100A7000808385EC90E09587848784EC90E097876D
:100A8000868780EC90E0918B808B81EC90E0938B5B
:100A9000828B82EC90E0958B848B86EC90E0978B38
:100AA000868B118E128E138E148EEEE5F4E080ED9F
:100AB00097E092A381A3178A108E13A214A215A205
:100AC00016A214821582EBE4F4E08FE691E09183A4
:100AD000808381E0808B17861686128613861486A3
:100AE00015862FB7F8948091470490914804A091FF
:100AF0004904B0914A042FBF86839783A087B187AA
:100B0000F28BE18B12821382148215828287938783
:100B1000A487B5870895CF93DF93CDB7DEB7299724
:100B20000FB6F894DEBF0FBECDBF789484B5826057
:100B300084BD84B5816084BD85B5826085BD85B581
:100B4000816085BD80916E00816080936E001092FF
:100B5000810080918100826080938100809181007A
:100B6000816080938100809180008160809380000B
:100B70008091B10084608093B1008091B000816069
:100B80008093B00080917A00846080937A00809195
:100B90007A00826080937A0080917A0081608093ED
:100BA0007A0080917A00806880937A001092C10068
:100BB0008EE088878FE0898787E0E4E0F1E0DE015E
:100BC000119601900D928A95E1F7109262041092AD
:100BD000630481E08093640492E090937504109222
:100BE0005E041092600480935F0480936104ADE61C
:100BF000B4E0FE01319688E08E0F91919D938E13A3
:100C0000FCCF88858093650489858093660410E015
:100C1000809175041817A0F4812F90E09C01225A4E
:100C20003B4F790161E0D90117968C910E940E012A
:100C300060915F04F70187810E94DE001F5FE8CFAB
:100C40000DE614E0E8E03E2E300E780161E0D801B8
:100C50008D918D010E940E0160916104F7018081E8
:100C60000E94DE003012F1CF60E070E0CB010E9404
:100C7000EC0288E795E09093800480937F04E091F4
:100C8000BA03F091BB0382E08083E091B603F09158
:100C9000B7031082E091B803F091B90380E180833B
:100CA0001092C203E091BE03F091BF0386E08083FF
:100CB000E091BC03F091BD03808180618083E0916D
:100CC000BC03F091BD03808188608083E091BC0308
:100CD000F091BD03808180688083E091BC03F09136
:100CE000BD0380818F7D808361E08DE00E940E01D5
:100CF00060E084E00E940E0162E082E10E940E0149
:100D000061E080E10E940E0161E081E10E940E013C
:100D100062E085E00E940E0160E082E10E940E0127
:100D200062E082E00E940E018BE991E09093010164
:100D300080930001809169008C7F826080936900BC
:100D4000E89A62E083E00E940E018FE991E09093BF
:100D500003018093020180916900837F8860809302
:100D60006900E99A60E080E10E94DE0060E081E1D4
:100D70000E94DE008DEC93E090935A048093590416
:100D800088EE93E0A0E0B0E080934D0490934E0491
:100D9000A0934F04B0935004809151049091520459
:100DA000A0915304B091540488519C4FAF4FBF4F52
:100DB0008093550490935604A0935704B09358041D
:100DC00060EAA62E62E0B62E88248394912C8FB719
:100DD000F8944091470450914804609149047091FF
:100DE0004A048FBF8BE494E00E94B702882321F06D
:100DF0008BE494E00E94910285E00E94B500892B6B
:100E000009F01BC280919F02882321F110929F025A
:100E100084E00E94B500892B09F418C28091A203D6
:100E20009091A30301969093A3038093A20361E0A2
:100E300080E10E94DE0060E081E10E94DE0080919E
:100E4000A2039091A303883E934024F01092A30341
:100E50001092A20382E10E94B500892B09F469C0B7
:100E60000E944A016B017C0152E3452E512C612CFA
:100E7000712C0E944A01DC01CB018C199D09AE093D
:100E8000BF09883E9340A105B10558F0F1E04F1A23
:100E900051086108710828EEC20E23E0D21EE11C41
:100EA000F11C411451046104710419F782E10E949C
:100EB000B500892BD9F785E00E94B500892BC9F1CF
:100EC0008091A403837887FF03C081508C6F8F5F6C
:100ED0008093A403E091A40381E08E0F8093A40388
:100EE0008091A2039091A303EE0FFF0BE656FC4FF7
:100EF000918380832091A4038091A2039091A30306
:100F0000422F022E000C550B5F932F939F938F93CC
:100F1000AFE6B2E0BF93AF93BF92AF920E94A40935
:100F200080EA92E00E94CA020FB6F894DEBF0FBEBC
:100F3000CDBF6091A2037091A303072E000C880B14
:100F4000990B0E94EC02809163048111C3C00E943E
:100F50004A01009181041091820420918304309110
:100F60008404AB01BC01401B510B620B730B8091DD
:100F70007F0490918004092E000CAA0BBB0B48172C
:100F800059076A077B0708F455C10E944A0160931C
:100F900081047093820480938304909384048091ED
:100FA000620481114DC010E080917504181758F447
:100FB000E12FF0E0E25AFB4F60915F0487810E94CD
:100FC000DE001F5FF1CFE0917604F0E0E25AFB4FC4
:100FD0006091610487850E94DE00809176048F5FB6
:100FE000883018F48093760402C010927604109131
:100FF0007604E12FF0E0E25AFB4F609160048785B0
:101000000E94DE00C40102C0880F991F1A95E2F702
:101010008C01F12C80917504F81608F00BC1EF2DAE
:10102000F0E0E25AFB4F818D90E080239123892BE1
:1010300029F060915E0487810E94DE00F394EACF7C
:101040000DE614E060916104D8018D918D010E943C
:10105000DE003012F7CFE0917604F0E0E25AFB4F69
:1010600060915F0487810E94DE00809176048F5F2B
:101070008093760490917504891710F0109276048D
:101080000091760410E0025A1B4F60915E04F80153
:1010900087810E94DE00E12CF12C075E1F4FD801F2
:1010A0008C9190E00E2C02C0959587950A94E2F7FA
:1010B00080FF08C060916004F701E25AFB4F87850A
:1010C0000E94DE00BFEFEB1AFB0AE8E0EE16F10427
:1010D00031F7B0C080916204811158C04DE6E42E12
:1010E00044E0F42E00E010E0270160916004D70195
:1010F0008C910E94DE003401002E02C0660C771C29
:101100000A94E2F7212C80917504281688F4E22DC8
:10111000F0E0E25AFB4F818D90E086219721892BE8
:1011200029F060915E0487810E94DE002394EBCF5A
:1011300080917F04909180048230910538F0880F6F
:10114000991F880F991F05970197F1F7712C8091CE
:101150007504781658F4E72DF0E0E25AFB4F6091E1
:101160005F0487810E94DE007394F1CFBFEFEB1A1A
:10117000FB0A60916104F20180810E94DE000F5F32
:101180001F4F0830110509F0AFCF54C0712C80916A
:101190007504781608F04EC0072D10E0025A1B4F58
:1011A00060915E04D80117968C910E94DE00412C5C
:1011B000512C7801B9E1EB0EF11CF701808190E030
:1011C000042C02C0959587950A94E2F780FF08C029
:1011D00060916004F201E25AFB4F87850E94DE00B5
:1011E000FFEF4F1A5F0A28E04216510431F7809151
:1011F0007F04909180048230910538F0880F991F08
:10120000880F991F05970197F1F78DE6E82E84E086
:10121000F82E60916104D7018D917D010E94DE005E
:101220003E10F7CF60915F04F80187810E94DE00D5
:101230007394ADCF0E948702CACD60E080E10E9426
:10124000DE0060E081E10E94DE0004CE8091A20316
:101250009091A30301979093A3038093A20360E06E
:1012600080E10E94DE0061E081E10E94DE00809169
:10127000A2039091A30397FFEDCDE8CD052E97FB38
:101280001EF400940E94550957FD07D00E9468097A
:1012900007FC03D04EF40C945509509540953095B9
:1012A00021953F4F4F4F5F4F0895909580957095D2
:1012B00061957F4F8F4F9F4F08950E948A09A59F88
:1012C000900DB49F900DA49F800D911D1124089541
:1012D000A1E21A2EAA1BBB1BFD010DC0AA1FBB1F3A
:1012E000EE1FFF1FA217B307E407F50720F0A21BAC
:1012F000B30BE40BF50B661F771F881F991F1A9419
:1013000069F760957095809590959B01AC01BD0142
:10131000CF010895A29FB001B39FC001A39F700D9C
:10132000811D1124911DB29F700D811D1124911DED
:101330000895EE0FFF1F0590F491E02D099481E0D0
:1013400090E0F8940C947C0CAEE0B0E0EAEAF9E0AE
:101350000C94530C0D891E8986E08C831A830983B3
:101360008FEF9FE79E838D83AE01475E5F4F6F894E
:10137000788DCE0101960E94C7092F813885F8012A
:10138000E20FF31F10822E96E4E00C946F0CACE099
:10139000B0E0EDECF9E00C94450C7C016B018A01A6
:1013A000FC0117821682838181FFBDC1CE010196A7
:1013B0004C01F7019381F60193FD859193FF819193
:1013C0006F01882309F4ABC1853239F493FD85910F
:1013D00093FF81916F01853229F4B70190E00E945B
:1013E000AF0BE7CF512C312C20E02032A0F48B3210
:1013F00069F030F4803259F0833269F420612CC0F6
:101400008D3239F0803339F4216026C022602460A7
:1014100023C0286021C027FD27C030ED380F3A30A7
:1014200078F426FF06C0FAE05F9E300D1124532E9B
:1014300013C08AE0389E300D1124332E20620CC078
:101440008E3221F426FD6BC1206406C08C3611F467
:10145000206802C0883641F4F60193FD859193FF20
:1014600081916F018111C1CF982F9F7D9554933049
:1014700028F40C5F1F4FFFE3F9830DC0833631F072
:10148000833771F0833509F05BC022C0F801808199
:1014900089830E5F1F4F44244394512C540115C07F
:1014A0003801F2E06F0E711CF801A080B18026FFB8
:1014B00003C0652D70E002C06FEF7FEFC5012C8780
:1014C0000E94A40B2C0183012C852F77222E17C09C
:1014D0003801F2E06F0E711CF801A080B18026FF88
:1014E00003C0652D70E002C06FEF7FEFC5012C8750
:1014F0000E94990B2C012C852068222E830123FC4D
:101500001BC0832D90E048165906B0F4B70180E265
:1015100090E00E94AF0B3A94F4CFF50127FC85913F
:1015200027FE81915F01B70190E00E94AF0B31105F
:101530003A94F1E04F1A51084114510471F7E5C093
:10154000843611F0893639F5F80127FF07C060812C
:101550007181828193810C5F1F4F08C0608171810E
:10156000072E000C880B990B0E5F1F4F2F76722EE3
:1015700097FF09C090958095709561957F4F8F4F2B
:101580009F4F2068722E2AE030E0A4010E94E70BF2
:10159000A82EA81844C0853729F42F7EB22E2AE041
:1015A00030E025C0F22FF97FBF2E8F36C1F018F43E
:1015B000883579F0B4C0803719F0883721F0AFC092
:1015C0002F2F2061B22EB4FE0DC08B2D8460B82E5B
:1015D00009C024FF0AC09F2F9660B92E06C028E0DC
:1015E00030E005C020E130E002C020E132E0F80147
:1015F000B7FE07C060817181828193810C5F1F4FAC
:1016000006C06081718180E090E00E5F1F4FA401F1
:101610000E94E70BA82EA818FB2DFF777F2E76FEE1
:101620000BC0372D3E7FA51450F474FE0AC072FC27
:1016300008C0372D3E7E05C0BA2C372D03C0BA2C0A
:1016400001C0B52C34FF0DC0FE01EA0DF11D8081F3
:10165000803311F4397E09C032FF06C0B394B394CD
:1016600004C0832F867809F0B39433FD13C030FF94
:1016700006C05A2CB31418F4530C5B18B32CB314D3
:1016800068F4B70180E290E03C870E94AF0BB3940E
:101690003C85F5CFB31410F43B1801C0312C34FF56
:1016A00012C0B70180E390E03C870E94AF0B3C85FD
:1016B00032FF17C031FD03C088E790E002C088E523
:1016C00090E0B7010CC0832F867859F031FF02C03B
:1016D0008BE201C080E237FD8DE2B70190E00E940D
:1016E000AF0BA51438F4B70180E390E00E94AF0B74
:1016F0005A94F7CFAA94F401EA0DF11D8081B70145
:1017000090E00E94AF0BA110F5CF332009F451CE29
:10171000B70180E290E00E94AF0B3A94F6CFF70158
:101720008681978102C08FEF9FEF2C96E2E10C94A7
:10173000610CFC010590615070400110D8F7809554
:1017400090958E0F9F1F0895FC016150704001908D
:101750000110D8F7809590958E0F9F1F08950F93D5
:101760001F93CF93DF93FB01238121FD03C08FEFF4
:101770009FEF28C022FF16C0468157812481358102
:101780004217530744F4A081B1819D012F5F3F4F61
:10179000318320838C93268137812F5F3F4F37839E
:1017A000268310C0EB01092F182F0084F185E02D4E
:1017B0000995892BE1F68E819F8101969F838E8307
:1017C000812F902FDF91CF911F910F910895FA01F2
:1017D000AA27283051F1203181F1E8946F936E7F70
:1017E0006E5F7F4F8F4F9F4FAF4FB1E03ED0B4E061
:1017F0003CD0670F781F891F9A1FA11D680F791FA2
:101800008A1F911DA11D6A0F711D811D911DA11DB2
:1018100020D009F468943F912AE0269F11243019C2
:10182000305D3193DEF6CF010895462F4770405D5D
:101830004193B3E00FD0C9F7F6CF462F4F70405D0C
:101840004A3318F0495D31FD4052419302D0A9F767
:10185000EACFB4E0A6959795879577956795BA9561
:10186000C9F700976105710508959B01AC010A2E27
:1018700006945795479537952795BA95C9F7620FFE
:10188000731F841F951FA01D08952F923F924F92A2
:101890005F926F927F928F929F92AF92BF92CF9200
:1018A000DF92EF92FF920F931F93CF93DF93CDB709
:1018B000DEB7CA1BDB0B0FB6F894DEBF0FBECDBF81
:1018C00009942A88398848885F846E847D848C8452
:1018D0009B84AA84B984C884DF80EE80FD800C815B
:1018E0001B81AA81B981CE0FD11D0FB6F894DEBF3E
:0C18F0000FBECDBFED010895F894FFCFAE
:1018FC006F016F01060708090A0B0C3F065B4F6668
:10190C006D7D077F6F777C395E79713D76060E763B
:10191C003800543F7367506D783E3E00766E5B0026
:10192C0040010000000A00000064000000E8030011
:10193C000010270000A086010040420F00809698FE
:10194C000000E1F50500CA9A3B000000001E027081
:10195C0001B6016502E701C501D90100000000A034
:10196C0001B70291022D2D2D2D2D2D2D2D2D2D2D2F
:10197C002D2D2D2D2D20446562756720436F6E73C0
:10198C006F6C65202D2D2D2D2D2D2D2D2D2D2D2DCF
:10199C002D2D2D2D0043757272656E7420636F753D
:1019AC006E7465722076616C7565203A2025640032
:1019BC00202D2D2D2D2D2D204D656D6F72792062D2
:1019CC00756666657220636F6E74656E74202D2D5E
:1019DC002D2D2D2D2D2D20004D454D312020204D10
:1019EC00454D32202020204D454D33202020204DC8
:1019FC00454D340025642020202020256420202003
:101A0C0020202025642020202020202564005472D2
:101A1C006967676572436F756E743A2025642C2074
:101A2C004D656D436F756E743A202564002D2D2D18
:101A3C002D2D2D2D2D2D2D2D2D2D2D2D2D2D2D2DCA
:101A4C002D2D2D2D2D2D2D2D2D2D2D2D2D2D2D2DBA
:101A5C002D2D2D2D2D2D2D2D2D2D2D2D0D0A004DFA
:101A6C00656D6F7279207365742061742076616C7A
:101A7C0075652025642E094D656D6F727920696E30
:0A1A8C006465783A2025642E0000FE
:00000001FF
